:020000040800F2
:100000001005002005010008B11500087D11000849
:10001000B51400082B0C0008092B00080000000094
:10002000000000000000000000000000DD1D0008CE
:10003000190E000800000000D5160008B51F0008C2
:100040001F0100081F0100081F0100081F01000810
:100050001F0100081F0100081F0100081F01000800
:100060001F0100081F0100081F0100081F010008F0
:100070001F0100081F0100081F0100081F010008E0
:100080001F0100081F0100081F0100081F010008D0
:100090001F0100081F0100081F0100081F010008C0
:1000A0001F010008D92000081F0100081F010008D7
:1000B0001F0100081F0100081F0100081F010008A0
:1000C0001F0100081F0100081F0100081F01000890
:1000D0001F0100081F010008D52600081F010008A5
:1000E0001F0100081F0100081F010008DFF810D0E1
:1000F00000F012FC00480047C1360008AFF3008052
:10010000100500200648804706480047FEE7FEE746
:10011000FEE7FEE7FEE7FEE7FEE7FEE7FEE7FEE7B7
:10012000B91F0008ED00000840EA01039B0703D057
:1001300009E008C9121F08C0042AFAD203E011F826
:10014000013B00F8013B521EF9D27047D2B201E0E8
:1001500000F8012B491EFBD270470022F6E710B5CC
:1001600013460A4604461946FFF7F0FF204610BD25
:1001700070B5064602F0DAFC046805460A22002142
:10018000304600F0B7F92C6070BD80EA010210B56E
:1001900002F00043400022D04A001FD0010E01EBC4
:1001A0001261C0F35600C2F3560240F4000042F45C
:1001B0000002A0FB022000047F39140400D0401C80
:1001C00050EA124001D44000491EC2B20C0604EBB2
:1001D000D010401C4008802A02D003E0002010BD4F
:1001E00020F00100002900DA0020184310BD30B4CF
:1001F00080EA010202F0004530F0004221F00040A8
:1002000013D090B1C30DD40DC2F31601C0F3160084
:10021000E41A41F4000140F400027D34914201D31C
:10022000641C00E04900002C02DA30BC002070475A
:100230004FF400000023914201D3891A0343400880
:100240004FEA4101F7D151B1914202D14FF0004143
:1002500005E002D24FF0010101E06FF0010103EB74
:10026000C450284430BC00F07DB92DE9FE4F81EA2E
:10027000030404F0004421F0004100944FF0000B0F
:1002800023F0004350EA01045ED052EA03045BD03D
:10029000C3F30A54C1F30A552C44A4F2F334019475
:1002A000A0FB0254C1F3130141F48011C3F3130303
:1002B00043F4801301FB024400FB034E840A970AB7
:1002C00044EA815447EA8357A4FB076802958D0AE4
:1002D00005FB07854FEA932C04FB0C542705029D70
:1002E0004FEA065847EA1637B5EB08056EEB070CE0
:1002F000870E920E47EA811742EA8312A7FB02019A
:10030000B6EB0B0164EB00042B0D43EA0C335E18D3
:1003100044EB1C50DA465146E7FB0201C5F31304D7
:100320004FEA0B3343EA14534FEA0432019C43EA89
:100330000603A4F10C040294009CCDE900B400F083
:1003400057F903B0BDE8F08F00200146F9E7962386
:100350000022114600F00FB90EB5C10F80EAE0701F
:100360000844CA07002140F233438DE80E000A46D4
:100370000B4600F03DF903B000BD0EB540F233412D
:1003800002910021CDE900110A460B4600F030F938
:1003900003B000BD00F0004220F00040C10DC0F3EA
:1003A000160040F400007F2901DA002070479629EA
:1003B00003DCC1F19601C84001E096398840002A6B
:1003C000F4D04042704720F00040C10DC0F3160049
:1003D00040F400007F2901DA00207047962903DCF1
:1003E000C1F19601C8407047963988407047C1F303
:1003F0000A5210B5C1F3130140F2FF3341F48011EA
:100400009A4201DA002010BD40F233439A42A2F230
:10041000334203DC524200F05DF810BD904010BD45
:1004200000F0004230F000400AD0C10D01F56071CB
:10043000C0F3160042EA0151C20840071143704759
:1004400000200146704730B50B46014600202022AF
:10045000012409E021FA02F59D4205D303FA02F5D1
:10046000491B04FA02F52844151EA2F10102F1DC31
:1004700030BD2DE9F05F0546002092469B46884638
:100480000646814640241BE0284641464746224610
:1004900000F020F853465A46C01A914110D3114635
:1004A0001846224600F04AFA2D1A67EB01084F461B
:1004B00022460120002100F041FA17EB00094E41CD
:1004C000201EA4F10104DFDC484631462A4643469B
:1004D000BDE8F09F202A04DB203A21FA02F0002137
:1004E000704721FA02F3D040C2F120029140084344
:1004F000194670472DE9F04791460F46804604465D
:10050000002614F8015B2DB100F03AFA0068405D56
:10051000C007F6D12B2D02D02D2D18D0641E4A46CF
:100520003946204600F030FA27B13968A14201D19E
:10053000C7F8008071054FF002040BD54042002837
:1005400003DD02F0F3FA0460A007BDE8F08746F48B
:100550008066E4E70028F8DA02F0E8FA04606FF059
:100560000040F2E70029A8BF7047401C490008BFBF
:1005700020F00100704710B4B0FA80FC00FA0CF0D3
:1005800050EA010404BF10BC704749B1CCF120040B
:1005900021FA04F411FA0CF118BF01212143084398
:1005A000A3EB0C01CB1D4FEA00614FEA102042BFC4
:1005B000002010BC704700EBC35010440029A4BFBA
:1005C00010BC7047401C490008BF20F0010010BC5F
:1005D000704710B5141E73F1000408DA401C41F195
:1005E000000192185B411A4301D120F0010010BDB7
:1005F0002DE9F04D92469B4611B1B1FA81F202E02D
:10060000B0FA80F22032904600F098F904460F4686
:1006100040EA0A0041EA0B0153465A46084313D008
:10062000114653EA010019D0C8F140025046FFF7C5
:1006300051FF05460E4650465946424600F07EF9A7
:10064000084305D0012004E020463946BDE8F08D7E
:100650000020054346EAE0762C4337430A986305B9
:10066000E40AA0EB08000022FD0A44EA47540A30DD
:1006700002D500200146E9E7010510196941DDE9CD
:10068000084500196941BDE8F04DA2E72DE9FE4F8C
:10069000804681EA0300C00F0C46009021F0004123
:1006A00023F00045B8EB0200A94105D2404621469F
:1006B00090461C460B46024623F00040104347D0AC
:1006C000270DC7F30A00C3F30A510290401A0190A4
:1006D00040286BDAC3F3130040F4801B0098924665
:1006E00020B10023D2EB030A63EB0B0B01985946B0
:1006F000C0F14002504600F021F906460D46504632
:100700005946019A00F029F910EB080061410024D4
:1007100087EA115284EAE7731A4340D0009A62B321
:10072000019A012A4FEA075215DC001B61EB020116
:100730004FF0004202EA0752CDE90042001C41F5A9
:10074000801132462B46FFF753FF03B0BDE8F08F10
:1007500040462146F9E7001B61EB0201001C41F510
:10076000801300185B412018A2F5001747EB030126
:1007700040EAD570B6196D4111E06D084FEA3606B2
:1007800045EAC0754FEA0752001B61EB0201001CED
:1007900041F5801149084FEA3000001951413246B5
:1007A0002B4603B0BDE8F04FFFF713BF00980122BE
:1007B00040000023D0EB020263EBE0730098214677
:1007C0004FEAE074B8EB000061EB0401E9E783F065
:1007D00000435BE781F0004158E72DE9F04D81EAE5
:1007E000030404F0004B21F0004514464FF0000ACA
:1007F00023F0004150EA050220D054EA01021DD046
:10080000C5F30A570246C5F31303C1F31300C1F33E
:100810000A5640F4801543F48013A7EB0608101B1A
:10082000D64608F2FD3873EB050002D308F1010843
:1008300001E092185B41B8F1000F03DA0020014695
:10084000BDE8F08D00204FF48011064684460EE08E
:10085000171B73EB050705D3121B63EB0503064358
:100860004CEA010C49084FEA300092185B4150EA0B
:100870000107EDD152EA030012D082EA040083EAB4
:100880000501084305D0101BAB4106D2012200230D
:1008900006E000224FF0004302E06FF00102531027
:1008A0001AEB06004CEB085110EB0A0041EB0B0170
:1008B000BDE8F04DFFF78DBEC1F30A52C1F313013D
:1008C00040F2FF3341F480119A4202DA00200146DF
:1008D000704740F233439A42A2F2334202DC524262
:1008E000FFF7F8BD00F02AB830B5041E71F100041E
:1008F00004DB4FF00044404264EB0101141E73F12D
:10090000000405DB1C464FF00043524263EB040336
:10091000994208BF904230BD064C074D06E0E068A2
:1009200040F0010394E8070098471034AC42F6D336
:10093000FFF7E0FB5438000874380008202A04DB75
:10094000203A00FA02F1002070479140C2F12003E2
:1009500020FA03F3194390407047202A06DBCB1797
:10096000203A41FA02F043EAE07306E041FA02F36A
:10097000D040C2F120029140084319467047000060
:1009800000487047503800082DE9F05F8246007833
:10099000002715468B460AF10104B946302801D0DC
:1009A0009DB113E014F8010B0127782803D05828D3
:1009B00001D045B10AE00DB1102D07D10027102557
:1009C00014F8010B02E0082500E00A250026B046D5
:1009D0000EE005FB080005FB06F1012701EB1046C0
:1009E0001FFA80F8B6F5803F00D3B94614F8010B22
:1009F000294600F018F80028EBDABBF1000F05D00B
:100A00000FB1641E00E05446CBF80040B9F1000F6E
:100A100006D002F08BF802210160C81EBDE8F09FED
:100A200048EA0640FAE73A2800D2303820F020029F
:100A3000412A01D3A2F13700884201D34FF0FF30A1
:100A4000704721B1826842F00102826003E082684F
:100A500022F001028260704710B5044612488442B9
:100A600008D10121401501F0EFF80021601501F0D7
:100A7000EBF817E00D48844208D10121001501F080
:100A8000E3F80021201501F0DFF80BE0084884426C
:100A900008D10121C80301F0D7F800214FF400402C
:100AA00001F0D2F810BD00000024014000280140F0
:100AB000003C0140014600208A6802F004020AB1AD
:100AC000012000E0002070470146C86C80B27047EA
:100AD0000246002013680B400BB1012000E000200B
:100AE0007047014600208A6802F008020AB101201E
:100AF00000E000207047000030B5024600200023CF
:100B000050680F4C20400D790C6844EA05242043BE
:100B1000506090680B4C2040D1E902542C434D7931
:100B200044EA450420439060D06A20F470000C7CB5
:100B3000641EE4B2234340EA0350D06230BD00009B
:100B4000FFFEF0FFFDF7F1FFF0B504460D46002073
:100B50000021092D11DDE068A5F10A0606EB460724
:100B6000072606FA07F18843A5F10A0606EB4606B2
:100B700003FA06F10843E0600CE0206905EB450745
:100B8000072606FA07F1884305EB450603FA06F146
:100B900008432061072A0FDA606B561E06EB8607B2
:100BA0001F2606FA07F18843561E06EB860605FA4D
:100BB00006F10843606322E00D2A0FDA206BD61F8E
:100BC00006EB86071F2606FA07F18843D61F06EBB9
:100BD000860605FA06F10843206310E0E06AA2F1F8
:100BE0000D0606EB86071F2606FA07F18843A2F1D9
:100BF0000D0606EB860605FA06F10843E062F0BD35
:100C0000816841F008018160704721B1826842F437
:100C1000A002826003E0826822F4A0028260704732
:100C2000816841F004018160704700BFFEE7000069
:100C300010B504464FF400710B4800F000FA4FF471
:100C40008071094800F0FDF91021074800F0F7F91C
:100C50002021054800F0F5F9204601F04BF9204627
:100C600001F060F910BD0000000C014010B5044611
:100C70004FF400710B4800F0E4F94FF4807109481B
:100C800000F0DDF91021074800F0DBF920210548CC
:100C900000F0D5F9204601F02DF9204601F042F987
:100CA00010BD0000000C01402DE9F04704464FF450
:100CB0000071134800F0C5F94FF48071104800F03E
:100CC000BEF910210E4800F0BCF920210C4800F0BC
:100CD000B6F92046FFF751FB07464FF03332094B78
:100CE000FFF7C3FA0546FFF782FB1FFA80F9484673
:100CF00001F000F9204601F015F9BDE8F087000089
:100D0000000C01403333D33F2DE9F04704464FF444
:100D10000071134800F095F94FF48071104800F00D
:100D20008EF910210E4800F08CF920210C4800F0BB
:100D300086F9204601F0DEF82046FFF71EFB074645
:100D40004FF03332074BFFF790FA0546FFF74FFBA2
:100D50001FFA80F9484601F0E5F8BDE8F087000089
:100D6000000C01403333D33F10B54FF400710B48F2
:100D700000F067F94FF48071084800F062F9102123
:100D8000064800F05EF92021044800F05AF90020DE
:100D900001F0B0F8002001F0C5F810BD000C0140D2
:100DA00010B504464FF400710B4800F048F94FF4B9
:100DB0008071094800F045F91021074800F041F919
:100DC0002021054800F03BF9204601F093F8204629
:100DD00001F0A8F810BD0000000C014010B5044659
:100DE0004FF400710B4800F02CF94FF48071094862
:100DF00000F025F91021074800F021F920210548CD
:100E000000F01FF9204601F075F8204601F08AF83D
:100E100010BD0000000C01407047000010B500201C
:100E2000084908700848007830B100F03BFC022106
:100E3000064800F006F903E00221044800F001F939
:100E400010BD00005A0000205B0000200008014097
:100E500010B501200849087008480078012806D01C
:100E600000F006FC0221064800F0E9F803E0022148
:100E7000034800F0E4F810BD5A0000205B00002099
:100E8000000801402DE9F04102460025002600201F
:100E900000230024002791F803C00CF00F0591F8FF
:100EA00003C00CF0100CBCF1000F03D091F802C08D
:100EB0004CEA050591F800C0BCF1000F31D0146870
:100EC00000202BE04FF0010C0CFA00F3B1F800C049
:100ED0000CEA03069E4220D183004FF00F0C0CFA5F
:100EE00003F7BC4305FA03FC4CEA040491F803C081
:100EF000BCF1280F06D14FF0010C0CFA00FCC2F82F
:100F000014C00AE091F803C0BCF1480F05D14FF0BE
:100F1000010C0CFA00FCC2F810C0401C0828D1D308
:100F20001460B1F800C0BCF1FF0F34DD546800203C
:100F30002EE000F1080C4FF0010808FA0CF3B1F8AC
:100F400000C00CEA03069E4221D183004FF00F0C33
:100F50000CFA03F7BC4305FA03FC4CEA040491F8CD
:100F600003C0BCF1280F05D100F1080C08FA0CF8F9
:100F7000C2F8148091F803C0BCF1480F07D100F10A
:100F8000080C4FF0010808FA0CF8C2F81080401C59
:100F90000828CED35460BDE8F0810000F0B50A46C1
:100FA000002300240021002500F00046B6F1004F88
:100FB00002D11D4EF16901E01B4E7168C0F303457B
:100FC00083B200F44016B6F5401F08D121F07061DD
:100FD000154E766826F07066134F7E6012E000F4BE
:100FE0008016B6F5801F06D1032606FA05F4A14344
:100FF00041F0706106E0460D360103FA06F6B14392
:1010000041F0706122B1460D360103FA06F6314314
:1010100000F00046B6F1004F02D1034EF16101E04D
:10102000014E7160F0BD000000000140024600204A
:1010300093680B400BB1012000E000207047416134
:10104000704701617047000000B585B0012148027A
:1010500000F0EAFD1948FFF7FFFC002000908DF832
:1010600004008DF805004FF46020029000200390EA
:1010700001208DF8100069461048FFF73DFD072359
:10108000012211460D48FFF75FFD01210B48FFF7D4
:10109000D8FC0A48FFF7B4FD00BF0848FFF721FD60
:1010A0000028FAD10548FFF7BBFD00BF0348FFF752
:1010B00001FD0028FAD105B000BD00000024014068
:1010C0002DE9F0414FF480411948FFF7AFFF054685
:1010D0004FF400511648FFF7A9FF06464FF40041B0
:1010E0001348FFF7A3FF07464FF480511148FFF75D
:1010F0009DFF8046012D01D1002001E04FF47A7060
:101100000446012E01D1002000E064200444012F98
:1011100001D1002000E00A200444B8F1010F01D001
:10112000012000E0002004442046BDE8F0810000DA
:1011300000100140000C014070B540210E48FFF73F
:1011400075FF08B9012000E00020054610210A487B
:10115000FFF76CFF08B9012000E0002006460DB93A
:101160000A2000E0002004460EB9012000E0002023
:101170000444204670BD00000008014000BFFEE7A7
:1011800008B50121042000F04FFD1020ADF800004B
:1011900048208DF8030003208DF8020069460548B9
:1011A000FFF770FE4020ADF8000069460148FFF7E8
:1011B00069FE08BD0008014008B50121182000F0B3
:1011C00033FD4FF46040ADF8000004208DF80300BB
:1011D00069460648FFF756FE4FF48050ADF8000010
:1011E00069460348FFF74EFE08BD000000100140AD
:1011F000000C01402DE9F0414FF48041A948FFF770
:1012000015FF04464FF40051A648FFF70FFF0546AF
:101210004FF40041A348FFF709FF06464FF4805101
:10122000A148FFF703FF0746012C24D11DBB16BBC5
:10123000012F20D14FF4FA70FFF718FD01209B49D0
:1012400008709B480078042804D14FF49670FFF78B
:10125000A7FD24E196480078052804D14FF4967044
:10126000FFF7BCFD1BE14FF4FA70FFF7FFFC012014
:101270008E49087013E1012C0CD15DB9012E09D102
:10128000012F07D14FF4FA70FFF70EFD02208749B6
:10129000087004E1012C0CD1012D0AD14EB9012FA7
:1012A00007D14FF4FA70FFF72FFD03207F49087034
:1012B000F5E05CB955B94EB9012F07D14FF49670DE
:1012C000FFF76EFD042079490870E8E0012C0AD18F
:1012D0004DB946B93FB94FF49670FFF77FFD052031
:1012E00072490870DBE024B9012D02D10EB9012F3B
:1012F0000AD024B91DB9012E01D1012F04D05CB947
:1013000055B9012E08D13FB94FF4C870FFF748FD19
:10131000062066490870C2E0012C03D1012D01D1DD
:1013200006B957B1012C03D115B9012E00D127B14F
:101330005CB9012D09D146B93FB94FF4C870FFF728
:101340004DFD072059490870A9E06CB9012D0BD15A
:10135000012E09D1012F07D140F22620FFF7A4FC6E
:101360000820524908709AE0012C0CD1012D0AD1B5
:10137000012E08D13FB940F22620FFF7C5FC092015
:101380004A4908708BE0012C05D1012D03D1012EB3
:1013900001D1012F09D014B90DB906B92FB17CBB09
:1013A000012D7CD1012E7AD157BB4148007802280B
:1013B00007D03F480078062803D03D480078082829
:1013C00004D14FF4C870FFF7EBFC64E038480078B4
:1013D000032807D036480078072803D0344800781F
:1013E000092804D14FF4C870FFF7F8FC53E03048E7
:1013F0000078042805D14FF49670FFF7D1FC4AE03D
:101400004DE02B480078052804D14FF49670FFF783
:10141000E5FC40E026480078012804D14FF4FA703A
:10142000FFF724FC37E022480078022807D0204844
:101430000078062803D01E480078082804D14FF40D
:10144000C870FFF731FC26E019480078032807D060
:1014500017480078072803D015480078092804D1D8
:101460004FF4C870FFF750FC15E0114800780428CD
:1014700004D14FF49670FFF793FC0CE00C48007811
:10148000052804D14FF49670FFF7A8FC03E04FF451
:10149000FA70FFF7EBFB0548007805490870BDE8D6
:1014A000F081000000100140000C014058000020B5
:1014B0005900002000BFFEE770B5054600240AE091
:1014C00000F084FC642002F09DF800F077FC6420BA
:1014D00002F098F8641C681C8442F1DB642002F07E
:1014E00091F800F06BFC70BD00B589B00121084691
:1014F00000F09AFB01212B48FFF750FD0121082045
:1015000000F092FB0121042000F07EFB4FF44C70B0
:10151000ADF8200010208DF8230003208DF8220064
:1015200008A92148FFF7AEFCC020ADF82000182024
:101530008DF8230003208DF8220008A91A48FFF730
:10154000A1FC40F2E730ADF818004720ADF81400D8
:101550000020ADF81A00ADF8160005A9134801F0F7
:101560000FF86020ADF804000120ADF8060000205F
:10157000ADF80A00ADF80C0001A90C4800F09EFE81
:1015800001A90A4800F0F0FE0121084800F061FEC0
:101590000821064800F0DEFE0821044800F036FF6E
:1015A00009B000BD00023000000C014000080040FE
:1015B0007047000070B5002100230F22C47804B3E7
:1015C000154C246804F4E064C4F5E064210AC1F118
:1015D0000403CA40447804FA03F184781440214398
:1015E00009010E4C0678A155047804F01F0501246A
:1015F000AC4005786D11AD0005F1E025C5F800415E
:1016000009E0047804F01F050124AC40044D06787D
:10161000761145F8264070BD0CED00E000E400E0D6
:1016200080E100E002490143024A11607047000076
:101630000000FA050CED00E008B50121042000F0DF
:10164000F3FA0220ADF8000000208DF8030069468F
:101650000448FFF717FC002003490870034908708D
:1016600008BD0000000801405B0000205A00002077
:1016700008B502210948FFF7E4FC0220ADF800009C
:1016800010208DF8030003208DF8020069460348FE
:10169000FFF7F8FB01200249087008BD000801406F
:1016A0005B00002008B502210848FFF7CAFC0220B1
:1016B000ADF8000000208DF8030069460348FFF7ED
:1016C000E1FB00200249087008BD0000000801404D
:1016D0005B000020704700002DE9FC4700F080FA15
:1016E0000022F6A1F74800F02BFC00286BDD002259
:1016F000F5A1F44800F024FC002864DDF148807A6C
:10170000302809D1FFF730FB0020F0490860F0498C
:10171000086000F02DFB4DE0EA48407A3038072899
:1017200041D2DFE800F004141A282E343A000020D9
:10173000E7490860FFF7C0FE1920012181404209F6
:10174000920002F1E022C2F8001100BF2FE0012058
:10175000DF490860FFF7B0FE29E00220DC4908609D
:10176000FFF7AAFE192001218140DA4A430942F815
:10177000231000BF1BE00320D5490860FFF79CFE43
:1017800015E00420D2490860FFF796FE0FE005201F
:10179000CF490860FFF790FE09E00620CC490860B9
:1017A000FFF78AFE03E00020C949086000BF00BFC0
:1017B00000F0DEFA0020C84908705021C148FEF749
:1017C000CCFCBDE8FC870022C4A1BE4800F0B8FBF9
:1017D00000282BDD5A270022C0A1BA4800F0B0FB38
:1017E00004462246BEA1B74800F0AAFB0646A64220
:1017F0001BDD002000900190301BC21EB148204428
:10180000C11C6846FEF790FC6846FEF7B1FC054631
:10181000C5F1B407F8B200F0E3FA0020AE49087051
:101820005021A848FEF799FCCBE76AE00022ADA161
:10183000A44800F085FB002863DD002000900190A3
:101840000022A8A19F4800F07BFB04462246A6A1E7
:101850009C4800F075FB0646A6420CDD301BC21EFC
:1018600098482044C11C6846FEF75EFC6846FEF7B7
:101870007FFC05462F4600229CA1924800F060FBA9
:101880000446224698A18F4800F05AFB0646A6421D
:101890000CDD301BC21E8B482044C11C6846FEF77D
:1018A00043FC6846FEF764FC0546A846002290A16A
:1018B000844800F045FB0446224689A1814800F097
:1018C0003FFB0646A6421BDD301BC21E7D4820445E
:1018D000C11C6846FEF728FC6846FEF749FC054631
:1018E000A94609F0FF0208F0FF01F8B200F010FB72
:1018F00000207949087050217248FEF72EFC60E7FD
:1019000000BF002270A16F4800F01AFB401C0028A5
:1019100078D16C48C078312803D105206B49086024
:101920000AE06848C078322803D106206749086079
:1019300002E000206549086062484079312801D101
:1019400001F02EFF5F48C07931280CD1694800684A
:1019500064306849086008460068B0F57A7F02DDA7
:101960004FF47A7008605748C07932280AD161482C
:10197000006864385F49086008460068C82801DAD2
:10198000C82008604F48407A312802D1B42000F0C6
:1019900027FA4C48407A322802D1002000F020FA81
:1019A0004848407B312805D1FF221146104600F0FF
:1019B000AFFA45E04348407B322805D1002211466A
:1019C000FF2000F0A5FA3BE03E48407B332805D1DC
:1019D0000022FF21104600F09BFA31E03948407B9D
:1019E000342805D1FF220021084600F091FA27E0B3
:1019F0003448407B352806D1FF221146002000F0F4
:101A000087FA1DE0DDE02F48407B362805D1FF2214
:101A10000021104600F07CFA12E02A48407B37286B
:101A200005D10022FF21084600F072FA08E025489F
:101A3000407B382804D100221146104600F068FA95
:101A40002048C07B31280ED12B48007828B9FFF7F9
:101A5000FFF90120284908700EE0FFF7DFF90020A8
:101A60002549087008E01748C07B302804D1FFF7EB
:101A7000D5F90020204908701248407C312802D155
:101A80005A2000F0ADF911480068052847D00F48EA
:101A90000068062843D00B4840783038052839D2F2
:101AA000DFE800F03403072C30000120074908600C
:101AB00034E002200549086030E000004D4F444505
:101AC000000000006C00002034574400300000206B
:101AD0005C00002080E100E04C00002050545A00DF
:101AE00023000000434C52002C000000434C4700F0
:101AF000434C4200280000206000002003203249AF
:101B000008600BE004203049086007E000202E49FF
:101B1000086003E000202C49086000BF00BF0020DF
:101B20002A49087050212A48FEF717FB264800680A
:101B3000072842D2DFE800F00407190D131F300018
:101B4000FFF712F93CE02349098888B2FFF78EF8C5
:101B500036E02049098888B2FFF7A6F830E01D4931
:101B6000098888B2FFF7D0F82AE01A49098888B2B4
:101B7000FFF75EF824E017480068FEF7EDFB054626
:101B8000154A164BFEF771FB0746FEF730FC84B290
:101B90002046FFF705F913E00E480068FEF7DCFB6E
:101BA00005460D4A0D4BFEF760FB0746FEF71FFC8E
:101BB00084B22046FFF712F902E0FFF7D5F800BF24
:101BC00000BF00BFFDE50000300000204C000020F9
:101BD0006C000020280000209A9999999999D93F82
:101BE00010B506480268521C05490648FEF79CFAE3
:101BF00050210348FEF7B1FA10BD00005400002048
:101C0000BC0000206C00002029B1064AD2690243C2
:101C1000044BDA6104E0034AD2698243014BDA6182
:101C2000704700000010024029B1064A9269024341
:101C3000044B9A6104E0034A92698243014B9A6122
:101C4000704700000010024029B1064AD2680243E2
:101C5000044BDA6004E0034AD2688243014BDA6045
:101C6000704700000010024030B50021002200241F
:101C700000232D4D6D6805F00C0121B1042905D01C
:101C8000082923D105E0294D056022E0274D056094
:101C90001FE0254D6D6805F47012234D6D6805F445
:101CA0008034022505EB92421CB9214D5543056055
:101CB0000BE01D4D6D6805F400351DB11C4D5543FD
:101CC000056002E0194D5543056002E0174D0560BF
:101CD00000BF00BF144D6D6805F0F0010909154DF6
:101CE0006B5C0568DD4045600F4D6D6805F4E06193
:101CF000090A104D6B5C4568DD4085600A4D6D68D2
:101D000005F46051C90A0B4D6B5C4568DD40C56048
:101D1000054D6D6805F44041890B074D6B5CC56846
:101D2000B5FBF3F5056130BD0010024000127A00EA
:101D300000093D00340000204400002010B50A488E
:101D4000007870B901210948FEF75FFF00BF02214A
:101D50000648FEF7BDFE0028F9D00448FEF7B4FEA1
:101D600010BDC820FCE700005A00002000240140FC
:101D700010B500F02BF8642001F044FC00F01EF8D0
:101D8000642001F03FFC10BD08B501210420FFF7DD
:101D90004BFF0120ADF8000010208DF80300032058
:101DA0008DF8020069460448FFF76CF801210248EB
:101DB000FFF747F908BD00000008014010B50121F8
:101DC0000148FFF73EF910BD0008014010B50121A0
:101DD0000148FFF734F910BD0008014070470000CA
:101DE00070B50446B42C00DDB4244FF4FA606043AF
:101DF000B421B0FBF1F000F5FA7085B22946024833
:101E000000F0BBFB70BD0000002C014010B500F0DD
:101E100001F810BD0CB50020019000903348006817
:101E200040F480303149086000BF3048006800F459
:101E3000003000900198401C0190009818B901985A
:101E4000B0F5A06FF1D12948006800F4003010B15E
:101E50000120009001E0002000900098012843D16B
:101E60002348006840F010002149086008460068D7
:101E700020F0030008600846006840F00200086097
:101E80001A48406819494860084640684860084652
:101E9000406840F4806048600846406820F47C1048
:101EA00048600846406840F4E8104860084600680A
:101EB00040F08070086000BF0C48006800F00070BF
:101EC0000028F9D00948406820F00300074948601D
:101ED0000846406840F00200486000BF0348406880
:101EE00000F00C000828F9D10CBD000000100240E1
:101EF0000020024010B50446B4F57A7F01DB40F2C1
:101F0000E7342146014800F036FB10BD00080040D0
:101F1000034B1A801B1D19801B1D18807047000081
:101F20003804004010B50446B4F57A7F01DB40F276
:101F3000E7342146014800F01CFB10BD00080040BA
:101F400070B503460C46154629461AE0585C2678BB
:101F5000B04200D014E0002206E0521CA05C8E18B3
:101F60009E5DB04200D005E0A05C18B18818185CF6
:101F70000028F2D100BFA05C08B9084670BD00BFC0
:101F8000491C585C0028E1D1401EF7E7042808D11D
:101F90004FF0E021096941F004014FF0E0221161A6
:101FA00007E04FF0E021096921F004014FF0E02241
:101FB000116170477047000010B51348006840F089
:101FC00001001149086008464068104908400E4960
:101FD0004860084600680E4908400B4908600846FA
:101FE000006820F4802008600846406820F4FE0065
:101FF00048604FF41F008860FFF708FF4FF0006053
:102000000449086010BD0000001002400000FFF805
:10201000FFFFF6FE08ED00E000B589B0012140F6B3
:102020000400FFF701FE4FF40060ADF82000182017
:102030008DF8230003208DF8220008A92448FEF71C
:1020400021FF4720ADF814000020ADF8160044F63B
:102050001F60ADF818000020ADF81A008DF81C00C4
:1020600005A91C4800F08CFA6020ADF8040001209E
:10207000ADF8060040F2DC50ADF80A000020ADF8E3
:102080000C0001A9134800F029FA0821114800F0BA
:1020900063FA012211460F4800F007F901210D48AB
:1020A00000F0E3F801210B4800F0D3F819208DF877
:1020B000000001208DF8010000208DF802000120B1
:1020C0008DF803006846FFF775FA09B000BD0000FF
:1020D00000080140002C014010B501210A4800F021
:1020E000D3F880B109480078401C084908700846B8
:1020F0000078322803DB0020087001F00BFB01217F
:10210000014800F0A3F810BD002C0140240000207D
:102110000EB501210846FFF777FD4720ADF8000016
:102120004FF6FF70ADF804000020ADF80600ADF8E2
:10213000020069464FF0804000F022FA00214FF083
:10214000804000F086F800204FF0804188840EBD6A
:1021500000B589B001210220FFF756FD01210C20B6
:10216000FFF762FD8020ADF8200018208DF82300D5
:1021700003208DF8220008A92B48FEF783FE0320D8
:10218000ADF8200008A92948FEF77CFE80212648EA
:10219000FEF755FF01212548FEF751FF0221234894
:1021A000FEF74DFF4720ADF81400FF20ADF81800F2
:1021B0000020ADF81A00ADF8160005A91C4800F083
:1021C000DFF96020ADF804000120ADF80600002022
:1021D000ADF80C00ADF80A0001A9154800F0C4F8EC
:1021E0000821134800F012F90020ADF80A0001A9F7
:1021F0000F4800F019F908210D4800F065F900209A
:10220000ADF80A0001A90A4800F068F90821084859
:1022100000F0A2F90121064800F01BF80121044852
:1022200000F008F809B000BD00080140000C0140B2
:102230000004004021B1028842F08002028004E0E4
:1022400002884FF67F731A4002807047CA430282A9
:10225000704721B1028842F00102028004E0028846
:102260004FF6FE731A400280704731B1B0F8442037
:1022700042F40042A0F8442005E0B0F84420C2F344
:102280000E02A0F84420704730B50246002000231B
:102290000024158A05EA0103958905EA010413B1B2
:1022A0000CB1012000E0002030BD1AB183890B433E
:1022B000838102E083898B438381704770B500245A
:1022C00000220023058C4FF6FE7635400584028CF3
:1022D0008388048B4FF68F752C40B51E2C400D88DB
:1022E0002C43751E2A400D892A434D882A43144DDC
:1022F000A8420BD0134DA84208D0134DA84205D0D8
:10230000124DA84202D0124DA84213D14FF6F775D4
:102310002A404D892A434FF6FB752A408D882A436F
:102320004FF6FF652B404FF6FF552B408D892B4311
:10233000CD892B4383800483CD888586028470BD3C
:10234000002C0140003401400040014000440140A5
:10235000004801400A460021018B4FF6F7731940EF
:10236000114301837047000070B500240022002350
:10237000058C4FF6EF7635400584028C8388048BFC
:1023800048F6FF752C404FF6FF452C400D884FF660
:10239000FF7606EA05252C434FF6DF752A400D89A6
:1023A00006EA05152A434D8806EA05152A43154D08
:1023B000A84202D0144DA8421DD14FF67F752A4085
:1023C0004D894FF6FF7606EA05152A434FF6BF758D
:1023D0002A408D8806EA05152A434FF6FF352B4023
:1023E0004FF2FF752B408D8906EA85052B43CD8979
:1023F00006EA85052B4383800483CD880587028404
:1024000070BD0000002C0140003401400A4600214C
:10241000018B4FF2FF7319404FF6FF7303EA02235B
:10242000194301837047000070B500240022002387
:10243000058C4FF6FF6635400584028C8388848BBB
:102440004FF68F752C404FF6FC752C400D882C43B1
:102450004FF6FF552A400D894FF6FF7606EA05250F
:102460002A434D8806EA05252A43154DA84202D085
:10247000144DA8421DD14FF2FF752A404D894FF6E9
:10248000FF7606EA05252A434FF6FF352A408D8858
:1024900006EA05252A434EF6FF752B404DF6FF75DB
:1024A0002B408D8906EA05152B43CD8906EA0515D3
:1024B0002B4383808483CD888587028470BD000090
:1024C000002C0140003401400A460021818B4FF668
:1024D000F7731940114381837047000070B50022E3
:1024E00000230024058C4EF6FF7635400584038CCE
:1024F0008488828B48F6FF752A404FF6FF452A40B4
:102500000D884FF6FF7606EA05252A434DF6FF753E
:102510002B400D8906EA05352B434D8806EA053523
:102520002B430B4DA84202D00A4DA84208D14BF6CE
:10253000FF752C408D894FF6FF7606EA85152C43F2
:1025400084808283CD88A0F84050038470BD000051
:10255000002C0140003401400A460021818B4FF2DB
:10256000FF7319404FF6FF7303EA02231943818377
:1025700070478186704701877047A0F84010704708
:10258000002202881D4B98420ED01D4B98420BD062
:10259000B0F1804F08D01B4B984205D01A4B98429F
:1025A00002D01A4B984204D14FF68F731A404B88D1
:1025B0001A43174B984207D0164B984204D04FF657
:1025C000FF431A40CB881A4302808B8883850B888F
:1025D00003850A4B98420BD0094B984208D00E4B0A
:1025E000984205D00D4B984202D00D4B984201D134
:1025F0000B7A03860123838270470000002C014080
:10260000003401400004004000080040000C00407D
:102610000010004000140040004001400044014010
:10262000004801402DE9F04107460024002500261E
:1026300000F0F6F98046FDF7C6FE84B21E2C42DC9F
:10264000FEF792FBB420FFF7CBFB4FF4FA7000F0DB
:10265000D9FF00F0E5F98046FDF79CFE04462546CB
:102660000020FFF7BDFB4FF4FA7000F0CBFF00F045
:10267000D7F98046FDF78EFE044626465A20FFF71E
:10268000AFFB4FF4FA7000F0BDFF162D09DA162EDD
:1026900007DAC820FEF7A2FB4FF4FA7000F0B2FF91
:1026A00016E0B54207DBC820FEF77AFB4FF4FA705C
:1026B00000F0A8FF0CE0C820FEF790FB4FF4FA7082
:1026C00000F0A0FF04E01E2C02DD3846FEF7CEFA33
:1026D000BDE8F08110B500240821244800F076F808
:1026E00030B10821214800F04DF8204800F00CF9E5
:1026F00020211E4800F06AF8002836D01B4800F060
:1027000003F9C4B240F22551184800F044F8242CD3
:1027100005D10120164908700020164908601448A8
:102720000078012803D1144812490968445410481C
:10273000007801280AD1232C08D110490870002004
:102740000B4908700B4800680D490860094800688B
:10275000401C0849086008460068502805DB002036
:102760000860034908700549087010BD0044004026
:102770004D00002050000020BC0000204C00002034
:102780005400002001F40072B2F5007F00D100BFB8
:10279000CA430280704710B50022002340F66A1435
:1027A000A14200D100BF0A1201249440A3B2DC432D
:1027B000048010BD21B1828942F40052828104E07C
:1027C00082894DF6FF731A408281704702460020CD
:1027D000B1F5007F00D100BF13880B400BB1012081
:1027E00000E000207047F0B50346002400260025D5
:1027F000002040F66A17B94200D100BF1846C1F365
:10280000421401F01F06012707FA06F5012C01D139
:102810000C3004E0022C01D1103000E014301AB169
:1028200007682F43076002E00768AF430760F0BD09
:102830002DE9F04786B005460E460024A24600BFAB
:10284000A1460027B08900B100BF2F462C8A4CF664
:10285000FF700440F08804432C82AC894EF6F310DC
:102860000440B08831890843718908430443AC812E
:10287000AC8A4FF6FF400440B0890443AC8201A803
:10288000FFF7F2F91F48874202D1DDF810A001E0FE
:10289000DDF80CA0A88900F4004040B10AEBCA00A2
:1028A00000EB0A1031684900B0FBF1F807E00AEBD1
:1028B000CA0000EB0A1031688900B0FBF1F864200F
:1028C000B8FBF0F004012009642101FB1089A889FC
:1028D00000F4004040B1322000EBC900B0FBF1F041
:1028E00000F00700044308E0322000EB09106421E7
:1028F000B0FBF1F000F00F0004432C8106B0BDE8FE
:10290000F08700000038014001468888C0F30800C5
:102910007047C1F3080282807047000008B50121AA
:102920000846FFF781F901210420FFF77DF9012115
:102930001048FEF733FB4FF40040ADF800001020C4
:102940008DF8030003208DF8020069460A48FEF75F
:1029500099FA4FF48050ADF8000004208DF8030080
:1029600069460548FEF78EFA4FF400410248FEF72B
:1029700066FB08BD000230000008014010B586B0BB
:10298000044601210420FFF74FF901214804FFF715
:102990003BF90420ADF8140003208DF81600182030
:1029A0008DF8170005A91C48FEF76CFA0820ADF851
:1029B000140004208DF8170005A91748FEF762FAE5
:1029C00001940020ADF80800ADF80A00ADF80C0045
:1029D000ADF810000C20ADF80E0001A90F48FFF76C
:1029E00027FF01210D48FFF7E5FE26208DF80000A6
:1029F00000208DF8010001208DF802008DF8030001
:102A00006846FEF7D7FD012240F225510348FFF743
:102A1000EAFE06B010BD000000080140004400407E
:102A20002DE9F04700254FF005090024002750E06C
:102A30004FF400413248FEF704FB0F2000F008FE7F
:102A40004FF400412E48FEF7FAFA4CF2503808E0F5
:102A5000A8F10100B0F1000800D135E0012000F03C
:102A6000F7FD4FF480512648FEF7E0FA0028EFD03A
:102A700000204FF08041888401218807FFF7E9FB9F
:102A80004CF250380DE0A8F10100B0F1000805D17A
:102A900000214FF08040FFF7DCFB15E0012000F043
:102AA000D7FD4FF480511648FEF7C0FA0128EAD04E
:102AB00000214FF08040FFF7CCFB4FF08040808C2E
:102AC0000544601CC4B200BF0A2000F09BFD781CC6
:102AD000C7B2052FACDB14B90020BDE8F087204653
:102AE000FDF735FC07462846FDF731FC80463946A0
:102AF000FDF77DFB064603493046FDF746FBECE754
:102B00000008014096438B3C00BFFEE70FB4054B25
:102B100010B503A9044A029800F0DEF810BC5DF875
:102B200014FB00009D360008640000200048704738
:102B30006800002002E008C8121F08C1002AFAD16C
:102B400070477047002001E001C1121F002AFBD12D
:102B5000704700002DE9FF5F82B00021DDE90430FD
:102B6000020DDDF840B0034318D044F61050A2F235
:102B7000FF3242431514119801281FD0A5EB0B001A
:102B8000401C5FEA000A4FF000064E4FDFF8389114
:102B9000B046504615D5CAF1000413E0119801243F
:102BA0004AA3012801D16FEA0B010298119AC0E9EA
:102BB0000031C0E9024206B0BDE8F09FCBF1000051
:102BC000DFE704460021404A491842EB0450CDE9B2
:102BD000001012E0E00707D032463B464046494627
:102BE000FDF743FB8046894632463B461046194670
:102BF000FDF73BFB06460F466410002CEAD1DDE9E9
:102C00000401DDE90023BAF1000F06DAFDF72DFB20
:102C100042464B46FDF729FB05E0FDF7DEFD424647
:102C20004B46FDF7DAFD04460E460022284BFDF721
:102C30005BFE03D84FF0FF30014607E00022254B32
:102C400020463146FDF722FDFDF736FE102409E04F
:102C5000002C0ADB0A220023FDF70BFC039B303219
:102C60001A55641E50EA0102F2D1641C039AC4F1A1
:102C700011031444119A012A03D0012208430DD1F3
:102C80000AE0084304D000204FF0110B119072E7C6
:102C9000A3EB0B056D1E0DE05B4504DD4FF000025C
:102CA00005F1010504E003DA4FF00002A5F101058A
:102CB000002AECD002981199C0E90231C0E9004520
:102CC00079E70000000014400000F03F30000000F1
:102CD0000000F0430000E03F2DE9FF4F95B09A4619
:102CE000884606460025EEE1252877D100242746B0
:102CF000F94A0121039400E0044316F8013F203B08
:102D000001FA03F01042F7D130782A2811D06FF081
:102D10002F033078A0F13002092A16D8039A44F024
:102D2000020402EB820203EB42021044761C039081
:102D3000EFE758F8042B0392002A03DA504244F4D8
:102D40000054039044F00204761C30782E2816D1EB
:102D500016F8010F44F004042A280DD06FF02F025A
:102D60003078A0F13003092B09D807EB870302EB79
:102D70004303C718761CF3E758F8047B761C3078B9
:102D80006C280FD006DC4C2817D068280DD06A2894
:102D900014D104E0742810D07A280FD10DE044F447
:102DA00000140AE044F4801401E044F44014727802
:102DB000824202D104F58014761C761C3078662895
:102DC0000BD013DC582877D009DC002875D04528B3
:102DD000F6D04628F4D047281AD193E118E06328AA
:102DE00035D0642879D0652812D18BE1702873D052
:102DF00008DC6728F1D069286FD06E280DD06F28C5
:102E000006D1ACE073282CD0752874D0782853D024
:102E10005246179990476D1C54E1C4F302500228A2
:102E200009D003280DD0D8F8001004280DD00D606B
:102E300008F1040846E1D8F80010EA17C1E9005289
:102E4000F6E7D8F800100D80F2E70D70F0E718F8FB
:102E5000041B8DF8001000208DF80100EB460120C6
:102E600003E058F804BB4FF0FF3061074FF000015A
:102E700002D40DE009F101018946B9420FDA81451A
:102E8000F8DB1BF809100029F4D108E009F1010171
:102E900089468142FADB1BF809100029F6D1039814
:102EA0005346A0EB090721463846179A00F080FAEE
:102EB000284400EB090507E044E008E10DE01BF8B9
:102EC000010B524617999047B9F10109F7D25346C1
:102ED00021463846179AF2E039E00A21C4F302523B
:102EE0004FF0000B0091022A06D058F8040BC117CE
:102EF000032A09D00AE023E008F1070020F00702C6
:102F0000F2E80201904605E000B2C117042A01D19F
:102F100040B2C117002906DA0A460021404261EB9F
:102F200002012D2202E0220504D52B228DF8042077
:102F3000012203E0E20701D02022F7E7914657E0A3
:102F40000A2100E010214FF0000B00910BE010214E
:102F50004FF0000B44F004040827009103E0082020
:102F60004FF0000B0090C4F30252022A05D058F82B
:102F7000040B0021032A08D008E008F1070020F024
:102F80000702F2E80201904603E080B2042A00D171
:102F9000C0B24FF0000922072AD53278702A07D034
:102FA000DDF800C08CF0100C5CEA0B0C05D00EE0D4
:102FB00040228DF80420012208E050EA010306D0E7
:102FC00030238DF804308DF8052002229146009BB5
:102FD00083F0080353EA0B030AD150EA010201D13E
:102FE000620705D530228DF804204FF001097F1EBD
:102FF0003278582A04D039A20C920CAA02920BE023
:103000003BA2F9E75B46009AFDF733FA0C9B9B5C09
:10301000029A521E0292137050EA0102F2D10298F3
:1030200004A9081A00F1200B600702D524F48034AB
:1030300000E001275F4502DDA7EB0B0000E0002068
:1030400000EB0B01009003984944401A0390E00301
:1030500006D453462146179A039800F0A9F905446F
:10306000002706E001A85246C05D179990476D1CE5
:103070007F1C4F45F6DBE0030CD553462146179ADB
:10308000039800F095F9054404E030205246179962
:1030900090476D1C0099481E00900029F5DC08E05F
:1030A0000298029952460078491C0291179990475C
:1030B0006D1CBBF10001ABF1010BF1DC5BE100F039
:1030C00065F90544761C307800287FF40DAE19B000
:1030D0002846BDE8F08F0000092801003031323366
:1030E0003435363738396162636465660000000044
:1030F000303132333435363738394142434445462E
:1031000000000000600700D4062708F1070020F047
:103110000700F0E80223804603F0004C5FEA0C0051
:1031200001D097A009E0200501D596A005E0E007B1
:1031300001D095A001E0AFF24C001390307823F05D
:10314000004365280CD006DC452809D046281DD050
:1031500047287FD13BE0662818D067287AD136E02F
:103160000021112F01DB112000E0781CCDE90001C6
:1031700004A90CA8FFF7EEFCDDE90D010C9A4FF055
:10318000000B07F10109109200914EE04FF0004052
:103190000097CDE9011004A90CA8FFF7DBFCDDE9DD
:1031A0000D020C9B0F994FF0000B9146109300926B
:1031B00011B9791C00EB0109B7EB090003D4C0F188
:1031C000FF3B07F10109A9EB0700019042E0012F45
:1031D00000DA01270021112F01DD112000E038461F
:1031E000CDE9000104A90CA8FFF7B4FCDDE90D014D
:1031F0000C9A00914FF0000BB946109221070FD4A2
:10320000009A4A4503DA914601E0A9F10109B9F1B2
:10321000010F05DD109AA9F10101515C3029F4D0AC
:10322000B84202DA10F1040F03DA0121CDE90110EE
:1032300010E0002803DC8344A9EB000102E0411CFC
:10324000494500DD8946A0EB0B00401C01904FF082
:1032500000400290200705D40198484502DB4FF05A
:10326000FF30019000208DF84B0002980DF14B07C4
:10327000B0F1004F25D002200C902B200D90029829
:1032800000280CDA404202902D200D9007E00A2120
:103290000298FDF7D8F83031029007F8011D0C991B
:1032A000481E0C900029F2DC02980028EFD1791E0C
:1032B0000D980870307800F0200040F0450007F8C5
:1032C000020D11A8C01BC01D02901398007800B118
:1032D000012000EB0901019801EBE0710298014423
:1032E0000398401A401E0390E00306D4534621463B
:1032F000179A039800F05CF805441398007818B109
:103300005246179990476D1CE00323D5534621463A
:10331000179A039800F04CF805441BE0BBF1000F2E
:1033200007DB0098584504DD1098179910F80B003A
:1033300001E0179930205246904701980BF1010B9C
:10334000401E05F10105019004D12E205246179927
:1033500090476D1CB9F10001A9F10109DEDC05E01F
:1033600017F8010B5246179990476D1C0299481E99
:1033700002900029F4DC53462146179A03989EE6F2
:103380002D0000002B000000200000002DE9F0417E
:10339000044600251E461746880404D405E0394635
:1033A0002020B0476D1C641EF9D52846BDE8F08189
:1033B0002DE9F041044600251E469046C80301D57C
:1033C000302700E02027880404D505E04146384630
:1033D000B0476D1C641EF9D52846BDE8F081000099
:1033E00010B51048007808B1FEF776F90E4800686D
:1033F000072813D2DFE800F0120405080D101100B1
:103400000DE0FDF7F7FE0AE04FF49670FFF70AF9BA
:1034100005E000F00BF802E001E000E000BF00BFB3
:1034200010BD00004C0000205C00002010B5624878
:10343000006862490968052202FB01005E490860D4
:1034400008460068B42805DBB4200860901F5B497B
:10345000086009E058480068002805DC002056494B
:10346000086001205549086053490878FEF7B8FC08
:10347000514800680A2805DC00221146FF20FEF7AB
:1034800047FD94E04C480068142805DC0022FF2129
:103490001046FEF73DFD8AE0474800681E2805DC1F
:1034A000FF2200210846FEF733FD80E04248006815
:1034B000282805DC0022FF210846FEF729FD76E0DA
:1034C0003D480068322805DCFF2211460020FEF747
:1034D0001FFD6CE0384800683C2805DCFF22002115
:1034E0001046FEF715FD62E033480068462805DC0B
:1034F000FF2211461046FEF70BFD58E02E480068EB
:10350000502805DC0022FF217D20FEF701FD4EE062
:10351000294800685A2805DC0022FF217D20FEF79B
:10352000F7FC44E024480068642805DC0022FF2101
:103530000F20FEF7EDFC3AE01F4800686E2805DC1E
:103540003A22FF211046FEF7E3FC30E01A480068FB
:10355000782805DCFF220C217D20FEF7D9FC26E02F
:1035600015480068822805DC0022FF210A20FEF7AA
:10357000CFFC1CE0104800688C2805DC7D220C2163
:10358000FF20FEF7C5FC12E00B480068962805DC1A
:10359000FF227D210846FEF7BBFC08E006480068D4
:1035A000A02804DCD2220F21BE20FEF7B1FC64204B
:1035B00000F028F810BD00001C00002020000020B2
:1035C00010B56FF00400FEF7E1FC0A4800680A49F4
:1035D000B0FBF1F0094908700846007800EB4001A3
:1035E000C1EBC0104FF6FF7101EAC000044908802A
:1035F00010BD00000000002000127A0048000020EA
:103600004A0000200146114A12884A434FF0E02345
:103610005A6100229A611A46126942F001021A6147
:1036200000BF4FF0E022106900F001021AB100F46F
:103630008032002AF5D04FF0E022126922F0010218
:103640004FF0E0231A6100229A6170474A0000207F
:103650000146114A12784A434FF0E0235A61002292
:103660009A611A46126942F001021A6100BF4FF0D6
:10367000E022106900F001021AB100F48032002A41
:10368000F5D04FF0E022126922F001024FF0E02362
:103690001A6100229A6170474800002070B5044604
:1036A0000D4600BF80210548FFF790F80028F9D0AB
:1036B000E1B20248FFF72DF9204670BD00440040FA
:1036C000FEF77AFC4FF4A060FDF7ACFFFFF778FF40
:1036D0004FF41650FFF752F9FEF756FBFFF71EF9AD
:1036E000FEF716FDFEF734FDFDF7FEFEFDF748FD83
:1036F000FDF7AAFCFDF7A0FFFDF75EFD00F00AF85C
:10370000FEF78AFC04E0FFF76BFE3C20FFF7A0FF0A
:10371000F9E700002DE9F04F89B00024FFF780F9A8
:10372000044612480890FEF709FB8146FDF7C8FCE5
:103730001FFA80FAFDF700FD00F0FF0B0020079054
:103740000898FCF76DFE05460E462046FCF768FE1D
:10375000074607983A460B468DE8600E059004A090
:10376000FFF7D4F909B0BDE8F08F00000000FA427D
:10377000243457442C435342252E32662C50562570
:10378000312E32662C475325642C4C462530346448
:103790002C4857253032642C474D253032642300A5
:1037A00010B5FEF713FB6420FFF72CFFFEF706FBB6
:1037B0000120FFF727FFFEF709FBC820FFF722FFD4
:1037C000FEF7FCFA0220FFF71DFF10BD004040404D
:1037D00040404040404041414141414040404040E4
:1037E0004040404040404040404040404005020290
:1037F000020202020202020202020202022020204F
:1038000020202020202020020202020202029090AA
:1038100090909090101010101010101010101010A8
:1038200010101010101010100202020202028888FC
:103830008888888808080808080808080808080808
:1038400008080808080808080202020240000000F0
:10385000CD37000874380008000000206C0000001C
:10386000342B0008E03800086C000020A40400009D
:10387000442B000800A24A040000000000000000E1
:103880000102030406070809800040002000000030
:103890005A0000000100000000000000F4010000D8
:1038A000000000000000000000000000010203040E
:1038B00001020304060708090204060800000000CC
:1038C00000000000000000000000000001000000F7
:1038D00000000000000000000000000000000000E8
:04000005080000ED02
:00000001FF
